:020000040000FA
:100000000A128A11E42F00308A000408840A820749
:1000100000340034003480343F34183472343134C6
:100020003F34F034FD3475343E344734583463344F
:100030003D34583495341D343C348234C434AE34A9
:100040003A34A834783421343934EF34933480345A
:100050003734A0349234A73435344634563415340A
:1000600034340034003400340034C434FF347F347A
:100070003F348034EF34FF34BE349034E134A9345B
:100080003E34EC3482347634BE348234AD342B3496
:100090003E340E343C34C334BD348734D13413344D
:1000A0003D3441347834D334BB3453344F34553435
:1000B0005234433445342034533445344C3445347D
:1000C000433454344F3452340034413443342034B4
:1000D00053344F34553452344334453400344E3461
:1000E0004F34203453344F34553452344334453430
:1000F000003449344E345634453452345434453443
:080100005234003420340034B5
:100BD8002130F1007630F000F00BF02DF10BF02D04
:100BE800000008002130F1007630F000F00BFA2DFB
:100BF800F10BFA2D0000080045344C3445344334D9
:100C0800543452344F344E3449344334533400341A
:100C18008312031307170A128A11EC250A128A1184
:100C28008312031307130A128A11EC250A128A1178
:100C380008007E088A007F0882000A128A111D2691
:100C48000A128A118000840A04087D0603190034F8
:100C5800FF0A0319FE0A212E831203130713071232
:100C68000808F03988000A128A110C260A128A111B
:100C7800831203130808F039013888000A128A1110
:100C88000C260A128A110A128A11F6250A128A11EA
:100C98000800F5008312031307130712750872077B
:100CA800F300F401F40D0430FF00740DF40CF30CA0
:100CB800FF0B592E730888000A128A110C260A1293
:100CC8008A11720875070F398312031388000A12F4
:100CD8008A110C260A128A110800F700F601AF2EB5
:100CE8007608770784000A128A1103200A128A11EB
:100CF800F20004300310F20CFF3E031D7E2E720832
:100D08000F39F3007308F5007608770784000A1294
:100D18008A1103200A128A110F39F2007208F400AE
:100D28008312031307160808F039750488000A129D
:100D38008A110C260A128A11831203130808F03943
:100D4800740488000A128A110C260A128A110130CA
:100D5800F2007208F6077608770784000A128A11EB
:100D680003200A128A11003A031DBB2EBC2E742ED2
:100D78000800831603130812831203138712033023
:100D880088000A128A110C260A128A110A128A117C
:100D9800F6250A128A1102308312031388000A12F8
:100DA8008A110C260A128A110A128A11F6250A12C9
:100DB8008A1102308312031388000A128A110C2642
:100DC8000A128A110A128A11F6250A128A110830A3
:100DD8008312031388000A128A110C260A128A1138
:100DE8000A128A11F6250A128A118312031388013E
:100DF8000A128A110C260A128A110C308312031364
:100E080088000A128A110C260A128A110A128A11FB
:100E1800F6250A128A118312031388010A128A110D
:100E28000C260A128A1106308312031388000A124C
:100E38008A110C260A128A110A128A11F6250A1238
:100E48008A110800C230831603139F00C130831231
:100E580003139F00FF308316031385008601870163
:100E68008801831203138801870186010A128A11F7
:100E7800BD260A128A110A128A1130260A128A110C
:100E8800F201F20A80300A128A114D260A128A11DA
:100E98004D300A128A1171260A128A11C73083123C
:100EA80003139F052130F800F80B582F8312031302
:100EB8001F151F19602F612F5D2F1E08FC00831658
:100EC80003131E08FB00A630F800F80B692F00007A
:100ED800831203131F08C73908389F002130F80010
:100EE800F80B742F831203131F151F197C2F7D2FE6
:100EF800792F1E08FA00831603131E08F900A6307E
:100F0800F800F80B852F00007A08803AFF0083303C
:100F18007F02031D912F8F307902031C942F952F88
:100F2800AE2F8312031306128616F201F20AC0309E
:100F38000A128A114D260A128A1171300A128A1170
:100F480071260A128A117A300A128A1171260A1237
:100F58008A11522F7C08803AFF0083307F02031DDC
:100F6800B72F8F307B02031CBA2FBB2FCE2F8312D3
:100F7800031306168612F201F20AC0300A128A1109
:100F88004D260A128A115D300A128A1171260A1238
:100F98008A11522F8312031306128612F201F20AE3
:100FA800C0300A128A114D260A128A1167300A12B5
:100FB8008A1171260A128A11522F0A128A110028E0
:100FC80083132C30FD000630FE000030FF00203077
:100FD80084000A128A1121260A128A11AC01AD0175
:100FE800AE01AF01B001B101F901FA01FB01FC0149
:080FF80083010A128A11262F61
:02400E003A3F37
:00000001FF
